:020000040800F2
:10000000005000202515000875150008751500081A
:10001000751500087515000875150008000000002A
:10002000000000000000000000000000751500083E
:10003000751500080000000075150008051100087E
:100040007515000875150008751500087515000868
:100050007515000875150008110700083D07000810
:100060006907000895070008751500087515000850
:100070007515000875150008751500087515000838
:100080007515000875150008751500087515000828
:100090007515000875150008751500087515000818
:1000A0007515000875150008751500087515000808
:1000B00075150008751500087515000875150008F8
:1000C00075150008751500087515000875150008E8
:1000D00075150008751500087515000875150008D8
:1000E000751500087515000800000000751500085A
:1000F00075150008751500087515000875150008B8
:1001000075150008751500087515000875150008A7
:100110007515000875150008751500087515000897
:100120007515000875150008751500087515000887
:1001300010B5054C237833B9044B13B10448AFF321
:1001400000800123237010BD040000200000000087
:10015000C015000808B5034B1BB103490348AFF3B2
:10016000008008BD0000000008000020C015000845
:1001700080B485B000AF78600023FB6003E000BF6F
:10018000FB680133FB607B684FF4FA7202FB03F3F8
:10019000FA689A42F3D300BF00BF1437BD4680BC53
:1001A0007047000080B500AF1E4B9B681D4A43F0AE
:1001B000010393601420FFF7DBFF1A4B9B68194A79
:1001C00043F400239360174B9B68164A43F40033B3
:1001D0009360144B9B68134A43F480239360114B44
:1001E0009B68104A43F4801393600E4B9B680D4A42
:1001F00023F4006393600B4B9B680A4A23F00203CD
:100200009360084B9B68074A43F00403936000BF68
:10021000044B9B689B0803F00103002BF8D100BF3F
:1002200000BF80BD0024014080B483B000AF03460E
:10023000FB71FB79092B1DD81D4B5B6B1C4A23F00E
:10024000010353631A4B5B6B194A23F00203536398
:10025000174B5B6B164A23F004035363144B5B6B21
:10026000134A23F008035363114B5B6B104A23F0CE
:10027000100353630E4B9B680D4A23F002039360F7
:100280000B4B9B680A4A43F48003936000BF084B02
:100290001B685B0803F00103012BF8D1044BB3F892
:1002A0004C309BB218460C37BD4680BC704700BF2F
:1002B0000024014080B500AF02220F21022000F08F
:1002C00015F800BF80BD80B500AF01220F210220CC
:1002D00000F0E0F800BF80BD80B500AF00220F2124
:1002E000022000F0D7F800BF80BD000080B483B0CA
:1002F00000AF0346FB710B46BB7113467B71FB7964
:10030000022B00F2B680BB790F2B00F2B2807B7912
:100310000F2B00F2AE80BB79072B52D8FB79022B52
:1003200037D0022B00F3A580002B02D0012B18D070
:100330009FE0524B1B68BA7992000F2101FA02F23A
:10034000D24311464D4A0B4013604C4B1B687979E0
:10035000BA79920001FA02F21146484A0B4313603F
:1003600087E0474B1B68BA7992000F2101FA02F22D
:10037000D2431146424A0B401360414B1B687979C6
:10038000BA79920001FA02F211463D4A0B4313601A
:100390006FE03C4B1B68BA7992000F2101FA02F220
:1003A000D2431146374A0B401360364B1B687979AC
:1003B000BA79920001FA02F21146324A0B431360F5
:1003C00057E0BB790F2B54D8BB79083BBB71FB7945
:1003D000022B36D0022B4CDC002B02D0012B18D084
:1003E00047E0294B1B68BA7992000F2101FA02F20B
:1003F000D2431146244A0B401360234B1B68797982
:10040000BA79920001FA02F211461F4A0B431360B7
:100410002FE01E4B1B68BA7992000F2101FA02F2FD
:10042000D2431146194A0B401360184B1B68797967
:10043000BA79920001FA02F21146144A0B43136092
:1004400017E0134B1B68BA7992000F2101FA02F2F0
:10045000D24311460E4A0B4013600D4B1B6879794D
:10046000BA79920001FA02F21146094A0B4313606D
:1004700000BF00BF0C37BD4680BC7047000801407C
:10048000000C01400010014004080140040C014030
:100490000410014080B483B000AF0346FB710B46EB
:1004A000BB7113467B71FB79022B61D8BB790F2B93
:1004B0005ED87B79002B2DD1FB79022B1ED0022B2D
:1004C00056DC002B02D0012B0CD051E02B4B1B68CB
:1004D000BA79012101FA02F2D2431146274A0B40B0
:1004E000136045E0264B1B68BA79012101FA02F23C
:1004F000D2431146224A0B40136039E0214B1B685E
:10050000BA79012101FA02F2D24311461D4A0B4089
:1005100013602DE07B79012B2AD1FB79022B1CD0B3
:10052000022B25DC002B02D0012B0BD020E0134B3B
:100530001B68BA79012101FA02F211460F4A0B43F6
:10054000136015E00E4B1B68BA79012101FA02F223
:1005500011460B4A0B4313600AE00A4B1B68BA7939
:10056000012101FA02F21146064A0B43136000BF53
:1005700000BF0C37BD4680BC704700BF0C0801406F
:100580000C0C01400C10014080B485B000AF7860C5
:100590000123FB737B68002B00F08B807B685B780A
:1005A0009B08BB737B685B7803F003037B73454A4E
:1005B000BB7B023352F823207B7B9B000F2101FA87
:1005C00003F3DB4318463F49BB7B0240023341F84B
:1005D00023203C4ABB7B023352F823207B681B78E4
:1005E00019467B7B9B0001FA03F318463549BB7B18
:1005F0000243023341F823207B689B78022B36D0DC
:10060000022B4BDC002B02D0012B18D046E02E4BE6
:100610009B687A685278114601228A40D24311467B
:10062000294A0B409360284BDB687A685278114660
:1006300001228A401146244A0B43D36030E0224B0A
:10064000DB687A685278114601228A40D24311460B
:100650001D4A0B40D3601C4B9B687A685278114648
:1006600001228A401146184A0B43936018E0164B4A
:100670009B687A685278114601228A401146124AD4
:100680000B439360104BDB687A6852781146012265
:100690008A4011460C4A0B43D36001E00023FB73F0
:1006A0007B685B7819467B685B68084A42F82130B2
:1006B00001E00023FB73FB7B18461437BD4680BC6A
:1006C000704700BF000001400004014020000020EE
:1006D00080B485B000AF78600123FB737B68002B8A
:1006E0000BD00A4B1B687A685278114601228A4067
:1006F0001146064A0B43136001E00023FB73FB7BAA
:1007000018461437BD4680BC704700BF0004014046
:1007100080B500AF074B1B68002B02D0054B1B6850
:100720009847054B5B69044A43F00103536100BFDE
:1007300080BD00BF200000200004014080B500AF54
:10074000074B5B68002B02D0054B5B689847054B55
:100750005B69044A43F00203536100BF80BD00BFE0
:10076000200000200004014080B500AF074B9B68CB
:10077000002B02D0054B9B689847054B5B69044AE8
:1007800043F00403536100BF80BD00BF2000002080
:100790000004014080B500AF074BDB68002B02D09E
:1007A000054BDB689847054B5B69044A43F0080337
:1007B000536100BF80BD00BF200000200004014045
:1007C00080B500AF02220E210220FFF78FFD00BF8F
:1007D00080BD80B500AF01220E210220FFF75AFE36
:1007E00000BF80BD80B500AF00220E210220FFF7C0
:1007F00051FE00BF80BD000080B485B000AF03464D
:10080000FB710123FB73FB79EF2B0FD8FB795B099D
:10081000BB73FB7903F01F037B737B7B012202FA1E
:1008200003F1064ABB7B42F8231001E00023FB736F
:10083000FB7B18461437BD4680BC704700E100E0E2
:1008400080B400AF0A4B1B68094A43F001031360F0
:10085000084B1B68074A23F001031360054B1B6814
:10086000044A23F00203136000BFBD4680BC7047FA
:10087000001002400410024080B483B000AF034671
:100880000A46FB711346BB71BB791F2B2AD8FB7933
:10089000022B1CD0022B25DC002B02D0012B0BD00D
:1008A00020E0134B1B68BA79012101FA02F21146CC
:1008B0000F4A0B43136015E00E4B1B68BA790121F8
:1008C00001FA02F211460B4A0B4313600AE00A4B8D
:1008D0001B68BA79012101FA02F21146064A0B435C
:1008E000136000BF00BF0C37BD4680BC704700BF1F
:1008F000141002401C1002401810024080B483B053
:1009000000AF0346FB71FB79032B13D80C4B1B681C
:100910000B4A23F480431360094B1B68084A23F4F5
:1009200000431360064B1B68FA7992031146044A90
:100930000B43136000BF0C37BD4680BC704700BF3F
:100940000410024080B485B000AF78600023FB60E3
:1009500003E000BFFB680133FB607B684FF4FA7271
:1009600002FB03F3FA689A42F3D300BF00BF1437C7
:10097000BD4680BC704780B500AF02220421002034
:10098000FFF7B4FC022205210020FFF7AFFC022292
:1009900006210020FFF7AAFC022207210020FFF712
:1009A000A5FC022208210020FFF7A0FC0222092159
:1009B0000020FFF79BFC02220A210020FFF796FC93
:1009C00002220D210020FFF791FC02220B210020C2
:1009D000FFF78CFC02220C210020FFF787FC00BFF0
:1009E00080BD000080B584B000AF0346FB71FB7989
:1009F000632B00F24383FA79F04BA3FB0213D9086F
:100A00000B469B000B445B00D31AFB72FB79EB4A4D
:100A1000A2FB0323DB08BB720023FB6029E3FB7A04
:100A2000092B00F27F8101A252F823F0550A000839
:100A30009D0A0008E50A00082D0B0008750B000848
:100A4000BD0B0008050C00084D0C0008950C0008B3
:100A5000DD0C0008012204210020FFF71BFD01220C
:100A600005210020FFF716FD012206210020FFF7D7
:100A700011FD012207210020FFF70CFD01220821B2
:100A80000020FFF707FD012209210020FFF702FDEA
:100A900000220A210020FFF7FDFC43E1002204218F
:100AA0000020FFF7F7FC012205210020FFF7F2FCF0
:100AB000012206210020FFF7EDFC00220721002083
:100AC000FFF7E8FC002208210020FFF7E3FC0022EA
:100AD00009210020FFF7DEFC00220A210020FFF799
:100AE000D9FC1FE1012204210020FFF7D3FC0122E1
:100AF00005210020FFF7CEFC002206210020FFF791
:100B0000C9FC012207210020FFF7C4FC01220821B3
:100B10000020FFF7BFFC002209210020FFF7BAFCEC
:100B200001220A210020FFF7B5FCFBE0012204218D
:100B30000020FFF7AFFC012205210020FFF7AAFCEF
:100B4000012206210020FFF7A5FC01220721002039
:100B5000FFF7A0FC002208210020FFF79BFC0022E9
:100B600009210020FFF796FC01220A210020FFF74F
:100B700091FCD7E0002204210020FFF78BFC01222A
:100B800005210020FFF786FC012206210020FFF747
:100B900081FC002207210020FFF77CFC00220821B5
:100BA0000020FFF777FC012209210020FFF772FCEB
:100BB00001220A210020FFF76DFCB3E0012204218D
:100BC0000020FFF767FC002205210020FFF762FCF0
:100BD000012206210020FFF75DFC012207210020F1
:100BE000FFF758FC002208210020FFF753FC0122E8
:100BF00009210020FFF74EFC01220A210020FFF707
:100C000049FC8FE0012204210020FFF743FC002271
:100C100005210020FFF73EFC012206210020FFF7FE
:100C200039FC012207210020FFF734FC01220821B2
:100C30000020FFF72FFC012209210020FFF72AFCEA
:100C400001220A210020FFF725FC6BE0012204218C
:100C50000020FFF71FFC012205210020FFF71AFCEE
:100C6000012206210020FFF715FC002207210020A9
:100C7000FFF710FC002208210020FFF70BFC0022E8
:100C800009210020FFF706FC00220A210020FFF7BF
:100C900001FC47E0012204210020FFF7FBFB0122B9
:100CA00005210020FFF7F6FB012206210020FFF7B7
:100CB000F1FB012207210020FFF7ECFB01220821B4
:100CC0000020FFF7E7FB012209210020FFF7E2FBEC
:100CD00001220A210020FFF7DDFB23E0012204218D
:100CE0000020FFF7D7FB012205210020FFF7D2FBF0
:100CF000012206210020FFF7CDFB01220721002061
:100D0000FFF7C8FB002208210020FFF7C3FB0122E8
:100D100009210020FFF7BEFB01220A210020FFF776
:100D2000B9FB00BF00220B210020FFF7B3FB01221B
:100D30000C210020FFF7AEFB0A20FFF703FEBB7A71
:100D4000092B00F2818101A252F823F0750D0008F1
:100D5000C10D0008090E0008510E0008990E000888
:100D6000E10E0008290F0008710F0008B90F0008F4
:100D700001100008012204210020FFF78BFB012253
:100D800005210020FFF786FB012206210020FFF746
:100D900081FB012207210020FFF77CFB01220821B3
:100DA0000020FFF777FB012209210020FFF772FBEB
:100DB00000220A210020FFF76DFB45E1CDCCCCCC11
:100DC000002204210020FFF765FB012205210020FD
:100DD000FFF760FB012206210020FFF75BFB0022EA
:100DE00007210020FFF756FB002208210020FFF713
:100DF00051FB002209210020FFF74CFB00220A21B1
:100E00000020FFF747FB1FE1012204210020FFF72C
:100E100041FB012205210020FFF73CFB00220621B7
:100E20000020FFF737FB012207210020FFF732FBEC
:100E3000012208210020FFF72DFB002209210020BC
:100E4000FFF728FB01220A210020FFF723FBFBE02C
:100E5000012204210020FFF71DFB012205210020B3
:100E6000FFF718FB012206210020FFF713FB0122E8
:100E700007210020FFF70EFB002208210020FFF7CA
:100E800009FB002209210020FFF704FB01220A21AF
:100E90000020FFF7FFFAD7E0002204210020FFF72F
:100EA000F9FA012205210020FFF7F4FA01220621B8
:100EB0000020FFF7EFFA002207210020FFF7EAFAEF
:100EC000002208210020FFF7E5FA01220921002075
:100ED000FFF7E0FA01220A210020FFF7DBFAB3E076
:100EE000012204210020FFF7D5FA0022052100206D
:100EF000FFF7D0FA012206210020FFF7CBFA0122EA
:100F000007210020FFF7C6FA002208210020FFF782
:100F1000C1FA012209210020FFF7BCFA01220A21AF
:100F20000020FFF7B7FA8FE0012204210020FFF72D
:100F3000B1FA002205210020FFF7ACFA01220621B8
:100F40000020FFF7A7FA012207210020FFF7A2FAED
:100F5000012208210020FFF79DFA0122092100202B
:100F6000FFF798FA01220A210020FFF793FA6BE0BD
:100F7000012204210020FFF78DFA01220521002023
:100F8000FFF788FA012206210020FFF783FA0022EA
:100F900007210020FFF77EFA002208210020FFF73A
:100FA00079FA002209210020FFF774FA00220A21B1
:100FB0000020FFF76FFA47E0012204210020FFF72D
:100FC00069FA012205210020FFF764FA01220621B7
:100FD0000020FFF75FFA012207210020FFF75AFAED
:100FE000012208210020FFF755FA012209210020E3
:100FF000FFF750FA01220A210020FFF74BFA23E005
:10100000012204210020FFF745FA012205210020DA
:10101000FFF740FA012206210020FFF73BFA0122E8
:1010200007210020FFF736FA002208210020FFF7F1
:1010300031FA012209210020FFF72CFA01220A21AE
:101040000020FFF727FA00BF01220B210020FFF745
:1010500021FA00220C210020FFF71CFA0A20FFF7DA
:1010600071FC01220C210020FFF714FAFB68013308
:10107000FB60FB680C2B7FF6D2AC00E000BF1037A2
:10108000BD4680BD80B500AF01220B210020FFF7D7
:1010900001FA01220C210020FFF7FCF900BF80BDFE
:1010A00080B400AF034B00221A6000BFBD4680BC75
:1010B000704700BF10E000E080B483B000AF7860FC
:1010C00039600D4A7B6853600B4B1B680A4A43F03A
:1010D00001031360094A3B681360094B04221A702C
:1010E000054B1B68044A43F00203136000BF0C3732
:1010F000BD4680BC704700BF10E000E060000020EB
:101100006400002080B582B000AF0023FB71124B59
:101110001B78022B11D1114B1B68104A23F00203DC
:1011200013600E4B1B680D4A23F0010313600B4B39
:1011300000225A60094B00229A60094B1B689847AD
:10114000064B1B681B0CDBB203F00103FB7100BFF5
:101150000837BD4680BD00BF6400002010E000E0FD
:101160006000002080B400AF0B4B1B78002B03D134
:10117000094B01221A700AE0074B1B78012B03D0A0
:10118000054B1B78022B02D1034B00221A7000BFC3
:10119000BD4680BC704700BF6500002080B400AF32
:1011A0000B4B1B78012B03D0094B1B78022B02D170
:1011B000074B02221A70074B00221A70064B0122BD
:1011C0001A70064B01221A7000BFBD4680BC7047E2
:1011D00065000020680000206B00002069000020EE
:1011E00080B400AF0B4B1B78012B03D0094B1B784D
:1011F000022B02D1074B02221A70074B00221A70F1
:10120000064B01221A70064B01221A7000BFBD4620
:1012100080BC704765000020680000206A00002044
:101220006900002080B400AF0F4B1B78022B03D065
:101230000D4B1B78012B13D10C4B1B780133DAB209
:101240000A4B1A700A4B1B7883F00103DAB2084B81
:101250001A70064B1B780A2B02D1034B01221A701D
:1012600000BFBD4680BC70476500002068000020BC
:101270006900002090B58DB000AF07F1180300227F
:101280001A605A609A60DA601A610023FB850023B5
:1012900087F82D30964A07F1100392E8030083E89F
:1012A0000300944A07F1080392E8030083E803006F
:1012B000914A3B4692E8030083E80300FFF7C0FA37
:1012C00002210220FFF7D8FA04210220FFF7D4FA06
:1012D00000210220FFF7D0FAFFF74DFBFFF770FA6D
:1012E000FEF7E8FFFFF7DCFE84498548FFF7E4FEE0
:1012F0000020FFF703FB09210220FFF7BDFA0022BF
:1013000000210020FEF7F2FFFEF74CFF082201212A
:101310000020FEF7EBFF012201210020FFF7BAF8C1
:10132000082202210020FEF7E1FF01220221002015
:10133000FFF7B0F8082203210020FEF7D7FF0122B3
:1013400003210020FFF7A6F802220E210220FEF75B
:10135000CDFF02220F210220FEF7C8FF07F1100384
:101360001846FFF711F907F108031846FFF70CF9C3
:101370003B461846FFF708F907F110031846FFF738
:10138000A7F907F108031846FFF7A2F93B461846EC
:10139000FFF79EF90720FFF72FFA0820FFF72CFA36
:1013A0000920FFF729FA574B1B78022B66D0022B36
:1013B00000F39880002B02D0012B07D092E0FFF7BA
:1013C00011FAFEF789FFFFF75DFE90E00020FEF7BF
:1013D0002BFF03461A464C4B1A8097F82D400020ED
:1013E000FEF722FF03461A46630030333B4423F8DE
:1013F000182C97F82D305B0030333B4433F8182C11
:10140000FB8D1344FB8597F82D30092B13D1FB8DF1
:101410003E4AA2FB0323DB089BB21A464FF4A57396
:1014200002FB03F31B0B9AB2394B1A800023FB8596
:10143000002387F82D3097F82D30013387F82D30B1
:10144000334B1B88DBB21846FFF7CCFA314B1B78C5
:101450009AB22F4B1B889A4204D9FFF7BAF9FEF7CC
:101460003BFF41E02B4B1B789AB2294B1B889A42D9
:101470003AD2FFF7B7F9FEF726FF35E0FFF7B2F9EA
:10148000FEF72AFF244B1B78012B05D1214B1B783B
:101490001846FFF7A7FA01E0FFF7F4FD1F4B1B7892
:1014A000012B0DD11B4B1B784A2B09D8194B1B78EC
:1014B0000533DAB2174B1A70184B00221A7015E078
:1014C000174B1B78012B11D1124B1B78232B0DD9F5
:1014D000104B1B78053BDAB20E4B1A70104B0022F2
:1014E0001A7003E000BF5EE700BF5CE700BF5AE789
:1014F000D8150008E0150008E815000825120008B6
:1015000020A10700650000206C000020CDCCCCCCD1
:101510006600002000000020690000206B00002011
:101520006A0000200D488546AFF300800C480D4945
:101530000D4A002302E0D458C4500433C4188C422E
:10154000F9D30A4A0A4C002301E013600432A24294
:10155000FBD300F011F8FFF78DFEFEE700500020EE
:101560000000002004000020F815000804000020FE
:1015700070000020FEE7000070B500260C4D0D4CF9
:10158000641BA410A64209D100F01AF800260A4DE7
:101590000A4C641BA410A64205D170BD55F8043B4B
:1015A00098470136EEE755F8043B98470136F2E7D5
:1015B000F0150008F0150008F0150008F4150008F3
:1015C000F8B500BFF8BC08BC9E467047F8B500BF30
:0815D000F8BC08BC9E46704700
:1015D800000100006511000800020000E111000888
:0815E800000300009D11000842
:0415F0005501000899
:0415F40031010008B9
:0415F80023000000CC
:0400000508001525B5
:00000001FF
